:020000040000FA
:100000000C9462000C948A000C948A000C948A0070
:100010000C948A000C948A000C948A000C948A0038
:100020000C948A000C948A000C948A000C948A0028
:100030000C948A000C948A000C948A000C948A0018
:100040000C9496060C948A000C9464060C943E065C
:100050000C948A000C948A000C948A000C948A00F8
:100060000C948A000C948A000000000024002700F1
:100070002A0000000000250028002B0000000000DE
:1000800023002600290004040404040404040202DA
:100090000202020203030303030301020408102007
:1000A0004080010204081020010204081020000012
:1000B0000008000201000003040700000000000027
:1000C0000000430811241FBECFEFD8E0DEBFCDBF34
:1000D00012E0A0E0B1E0E8E6FAE102C005900D927E
:1000E000AC37B107D9F723E0ACE7B2E001C01D920D
:1000F000A632B207E1F710E0C2E6D0E004C02197D3
:10010000FE010E943A0BC136D107C9F70E94E006F2
:100110000C94320D0C940000AF92BF92CF92DF92FC
:10012000EF92FF920F931F93CF93DF936C017B01AC
:100130008B01040F151FEB015E01AE18BF08C0173D
:10014000D10759F06991D601ED91FC910190F081B0
:10015000E02DC6010995892B79F7C501DF91CF9173
:100160001F910F91FF90EF90DF90CF90BF90AF90D5
:100170000895FC01448155816081718185E892E098
:100180000C948C00FC01538D448D252F30E0842F7E
:1001900090E0821B930B541710F0CF9608950197AF
:1001A0000895FC01918D828D981761F0A28DAE0F9C
:1001B000BF2FB11D5D968C91928D9F5F9F73928F23
:1001C00090E008958FEF9FEF0895FC01918D828D4F
:1001D000981731F0828DE80FF11D858D90E008951C
:1001E0008FEF9FEF0895FC01918D228D892F90E074
:1001F000805C9F4F821B91098F739927089585E832
:1002000092E00E94F30021E0892B09F420E0822F84
:10021000089580E090E0892B29F00E94FF00811171
:100220000C9400000895FC01A48DA80FB92FB11DF6
:10023000A35ABF4F2C91848D90E001968F7399271C
:10024000848FA689B7892C93A089B1898C918370FA
:1002500080648C93938D848D981306C00288F389F3
:10026000E02D80818F7D80830895EF92FF920F9320
:100270001F93CF93DF93EC0181E0888F9B8D8C8D52
:1002800098131AC0E889F989808185FF15C09FB746
:10029000F894EE89FF896083E889F9898081837009
:1002A000806480839FBF81E090E0DF91CF911F91B8
:1002B0000F91FF90EF900895F62E0B8D10E00F5FD9
:1002C0001F4F0F731127E02E8C8D8E110CC00FB6AF
:1002D00007FCFACFE889F989808185FFF5CFCE0147
:1002E0000E941301F1CFEB8DEC0FFD2FF11DE35AAE
:1002F000FF4FF0829FB7F8940B8FEA89FB898081CA
:100300008062CFCFCF93DF93EC01888D8823B9F043
:10031000AA89BB89E889F9898C9185FD03C0808110
:1003200086FD0DC00FB607FCF7CF8C9185FFF2CF8D
:10033000808185FFEDCFCE010E941301E9CFDF91CF
:10034000CF910895833081F028F4813099F0823084
:10035000A9F008958730A9F08830C9F08430B1F44D
:10036000809180008F7D03C0809180008F77809383
:100370008000089584B58F7784BD089584B58F7DFE
:10038000FBCF8091B0008F778093B000089580916B
:10039000B0008F7DF9CF1F93CF93DF93282F30E0EC
:1003A000F901E255FF4F8491F901E656FF4FD491D0
:1003B000F901EA57FF4FC491CC23A9F0162F811100
:1003C0000E94A201EC2FF0E0EE0FFF1FEE58FF4F4E
:1003D000A591B4918FB7F894EC91111108C0D09504
:1003E000DE23DC938FBFDF91CF911F910895DE2B29
:1003F000F8CFCF93DF9390E0FC01E656FF4F2491B6
:100400008A579F4FFC0184918823D1F090E0880F98
:10041000991FFC01E859FF4FA591B491FC01EE58DA
:10042000FF4FC591D49161110EC09FB7F8948C9184
:10043000E22FE0958E238C932881E223E8839FBFEF
:10044000DF91CF9108958FB7F894EC91E22BEC9364
:100450008FBFF6CF8E50806480937C0080917A00AD
:10046000806480937A0080917A0086FDFCCF809131
:1004700078009091790008953FB7F89480918102B7
:1004800090918202A0918302B091840226B5A89B2C
:1004900005C02F3F19F00196A11DB11D3FBFBA2F16
:1004A000A92F982F8827BC01CD01620F711D811DD6
:1004B000911D42E0660F771F881F991F4A95D1F75B
:1004C00008958F929F92AF92BF92CF92DF92EF9258
:1004D000FF924B015C010E943C026B017C010E9477
:1004E0003C026C197D098E099F09683E73408105A5
:1004F0009105A8F321E0821A9108A108B10888EEBD
:10050000C80E83E0D81EE11CF11C81149104A104E3
:10051000B10429F7FF90EF90DF90CF90BF90AF909C
:100520009F908F900895FC0101900020E9F731978A
:10053000AF01481B590BBC0185E892E00C948C007C
:100540008F929F92AF92BF920F931F93CF93DF939F
:10055000CDB7DEB7A1970FB6F894DEBF0FBECDBF03
:1005600019A2423008F44AE08E010F5D1F4F842E1D
:10057000912CB12CA12CA50194010E94EA09E62F2F
:10058000B901CA01EA30F4F4E05DD801EE938D01BF
:10059000232B242B252B79F790E080E0109719F07E
:1005A000CD010E949302A1960FB6F894DEBF0FBE54
:1005B000CDBFDF91CF911F910F91BF90AF909F90D2
:1005C0008F900895E95CE1CFCF93DF930E94B9004B
:1005D000EC0188E191E00E9493028C0F9D1FDF9156
:1005E000CF910895CF93DF930E949302EC0188E1AD
:1005F00091E00E9493028C0F9D1FDF91CF9108958F
:100600004F925F926F927F928F929F92AF92BF9222
:10061000CF92DF92EF92FF920F931F93CF936B01D4
:100620007C01742EAC019B010E942E0B882399F053
:100630008BE191E0CF911F910F91FF90EF90DF90B0
:10064000CF90BF90AF909F908F907F906F905F9072
:100650004F900C94930246015701E894B7F82FEF9E
:100660003FEF4FE75FE7C501B4010E942E0B8111F8
:100670000DC02FEF3FEF4FE75FE7C501B4010E94C8
:10068000700818161CF48FE191E0D4CF2FEF3FEFE4
:100690004FE75FE4C701B6010E94290B18161CF44E
:1006A00083E291E0C7CF2FEF3FEF4FE75FECC70149
:1006B000B6010E94700887FDF3CF20E030E0A90169
:1006C000C701B6010E94700810E000E087FF0AC071
:1006D0006DE285E892E00E9435018C01F7FAF09412
:1006E000F7F8F094C0E060E070E080E09FE37C16F3
:1006F00041F020E030E040E251E40E94880ACF5F00
:10070000F6CFA70196010E941C0A2B013C010E9412
:10071000FA0A4B015C014AE00E94A0027C01E00E53
:10072000F11ECC23C1F1C501B4010E9475089B01E3
:10073000AC01C301B2010E941B0A4B015C016EE2D5
:1007400085E892E00E943501E80EF91EC15018F1CB
:1007500020E030E040E251E4C501B4010E94D60837
:100760002B013C010E94FA0A4B01B12CA12C4AE05A
:10077000C501B4010E94A002E80EF91EC501B40132
:100780000E9475089B01AC01C301B2010E941B0AC3
:100790004B015C01DBCFC701CF911F910F91FF90FF
:1007A000EF90DF90CF90BF90AF909F908F907F9011
:1007B0006F905F904F9008950F931F93CF93DF93A7
:1007C000EC0188819981009759F02A813B81261795
:1007D000370730F081E0DF91CF911F910F9108959D
:1007E0008B016F5F7F4F0E94650C009759F09983D2
:1007F00088831B830A832C813D81232B59F7FC01BD
:100800001082E8CF80E0E7CFEF92FF920F931F9323
:10081000CF93DF936115710541F480E0DF91CF91B3
:100820001F910F91FF90EF90089541155105B1F080
:100830007B01EC010C811D81040F151FB8010E9482
:10084000DC03882351F3288139818C819D81B70194
:10085000820F931F0E942B0D1D830C8381E0DECF3E
:10086000CF93DF93EC0188819981009711F00E946A
:10087000DC0B198218821D821C821B821A82DF9176
:10088000CF910895CF93DF93EC01FB0101900020FD
:10089000E9F73197AF01461B570B0E940404811101
:1008A00003C0CE010E943004CE01DF91CF910895A4
:1008B000EF92FF920F931F93CF93DF93EC01198276
:1008C00018821B821A821D821C828617970719F1D3
:1008D000FB010081118101151105E9F0E480F5802B
:1008E000B7010E94DC03811109C0CE01DF91CF91D5
:1008F0001F910F91FF90EF900C943004FD82EC82D9
:10090000B80188819981DF91CF911F910F91FF905C
:10091000EF900C942B0DDF91CF911F910F91FF90D1
:10092000EF900895EF92FF920F931F93CF93DF9371
:10093000EC017B01198218821B821A821D821C82A3
:10094000FB0101900020E9F731978F01061B170B7F
:10095000B8010E94DC03811109C0CE01DF91CF9163
:100960001F910F91FF90EF900C9430041D830C8326
:10097000B70188819981DF91CF911F910F91FF90ED
:10098000EF900C942B0DFC0180819181009711F068
:100990000C94DC0B08954F925F926F927F92AF920E
:1009A000BF92CF92DF92EF920F931F93CF93DF937B
:1009B000CDB7DEB72A970FB6F894DEBF0FBECDBF16
:1009C0005C012A013B010F83188729873A8782E758
:1009D00091E0EE2009F44DC00E94F20282E791E01E
:1009E0000E94F202B501CE0101960E94580467E20E
:1009F00071E0CE0101960E9442040E94E402CE0101
:100A000001960E94C30482E791E00E94F202B501C0
:100A1000CE0101960E94580463E471E0CE01019674
:100A20000E9442040E94B900CE0101960E94C304B4
:100A300042E0C301B2010E94000380E591E00E9400
:100A4000930282E791E00E94F2022A960FB6F89490
:100A5000DEBF0FBECDBFDF91CF911F910F91EF9001
:100A6000DF90CF90BF90AF907F906F905F904F904E
:100A700008950E94F20282E791E00E94F202B5011D
:100A8000CE0101960E94580463E571E0CE01019603
:100A90000E9442040E94E402CE0101960E94C30417
:100AA00082E791E00E94F202B501CE0101960E9418
:100AB000580463E471E0CE0101960E9442040E9452
:100AC000B900CE0101960E94C30442E0C301B20105
:100AD0000E94000380E591E00E949302B501CE01DF
:100AE00001960E94580464E771E0CE0101960E94CD
:100AF00042040E94E402CE0101960E94C30442E037
:100B00006F81788589859A850E9400036CE971E080
:100B1000CE0101960E949204F601448155816081C4
:100B20007181CE0101960E940404811104C0CE019E
:100B300001960E943004CE0101960E94B900CE01B8
:100B400001960E94C3047DCF8F929F92AF92BF9275
:100B5000CF92DF92EF920F931F93CF93DF93CDB796
:100B6000DEB72C970FB6F894DEBF0FBECDBF8B015A
:100B700024EF31E0DC010E94330B2FEF33E040E043
:100B800050E00E949409CA01B9010E94770820E050
:100B900030E040EA50E40E94880A4B015C0120E00A
:100BA00030E04CE852E40E94700887FF37C060EAEA
:100BB00071E0CE0107960E949204B801CE01019621
:100BC0000E945804A501940160E070E08CE892E472
:100BD0000E941B0A8B019C01CE0107966C01E12C3F
:100BE000B501A40106970E94CB04CE0101960E9494
:100BF000C304C6010E94C3042C960FB6F894DEBF4E
:100C00000FBECDBFDF91CF911F910F91EF90DF907D
:100C1000CF90BF90AF909F908F90089520E030E0EC
:100C200046E952E4C501B4010E94290B181694F458
:100C300069EA71E0CE0107960E949204B801CE01E4
:100C400001960E94580420E030E046E952E4C501D4
:100C5000B401BECF6AE171E0CE0107960E94920412
:100C6000B801CE0101960E945804CE0107966C018E
:100C7000EE24E39400E010E09801B2CF1F920F92AF
:100C80000FB60F9211242F933F934F935F936F935F
:100C90007F938F939F93AF93BF93EF93FF9385E8D9
:100CA00092E00E941301FF91EF91BF91AF919F914C
:100CB0008F917F916F915F914F913F912F910F9005
:100CC0000FBE0F901F9018951F920F920FB60F92A4
:100CD00011242F938F939F93EF93FF93E0919502AD
:100CE000F09196028081E0919B02F0919C0282FD3E
:100CF0001BC0908180919E028F5F8F7320919F0215
:100D0000821741F0E0919E02F0E0EB57FD4F958F86
:100D100080939E02FF91EF919F918F912F910F9061
:100D20000FBE0F901F9018958081F4CF1F920F92E5
:100D30000FB60F9211242F933F938F939F93AF93EE
:100D4000BF9380917D0290917E02A0917F02B0912D
:100D5000800230917C0223E0230F2D3758F5019655
:100D6000A11DB11D20937C0280937D0290937E0291
:100D7000A0937F02B09380028091810290918202C1
:100D8000A0918302B09184020196A11DB11D8093B0
:100D9000810290938202A0938302B0938402BF9158
:100DA000AF919F918F913F912F910F900FBE0F9018
:100DB0001F90189526E8230F0296A11DB11DD2CFD2
:100DC000CF93DF9300D000D000D0CDB7DEB77894BA
:100DD00084B5826084BD84B5816084BD85B5826040
:100DE00085BD85B5816085BD80916E0081608093F1
:100DF0006E0010928100809181008260809381005A
:100E00008091810081608093810080918000816069
:100E1000809380008091B10084608093B1008091C4
:100E2000B00081608093B00080917A0084608093EC
:100E30007A0080917A00826080937A0080917A00B3
:100E4000816080937A0080917A00806880937A0034
:100E50001092C10060E082E00E94F90161E086E04A
:100E60000E94F90161E085E00E94F90161E084E0FF
:100E70000E94F90160E08EE00E94F90160E08FE0DD
:100E80000E94F90160E080E10E94F901E091950281
:100E9000F091960282E08083E0919102F0919202BB
:100EA0001082E0919302F09194028FEC8083109273
:100EB0009D02E0919902F0919A0286E08083E09190
:100EC0009702F0919802808180618083E09197027F
:100ED000F0919802808188608083E0919702F09180
:100EE0009802808180688083E0919702F091980257
:100EF00080818F7D808383EB91E00E94F2028FEDF1
:100F000091E00E94F20282E791E00E94F20200EB7F
:100F100010E09CE9E92E90E0F92E28E8C22E20E0AE
:100F2000D22E30E0A32E30E0B32EF8018491F701E9
:100F30009490F6018490882009F499C081110E9450
:100F4000A201E82DF0E0EE0FFF1FE458FF4FA5913E
:100F5000B4918C91982209F48AC082E791E00E94B2
:100F6000F2028EEE91E00E94F20282E791E00E948E
:100F7000F20261E086E00E94CB0161E085E00E9420
:100F8000CB0161E084E00E94CB0160E27EE480E07E
:100F900090E00E94610260E086E00E94CB0160E088
:100FA00085E00E94CB0160E084E00E94CB0182E7F3
:100FB00091E00E94F20284E192E00E94F20282E754
:100FC00091E00E94F20268EB7BE080E090E00E94FA
:100FD00061028EE00E942A024C0162E572E0CE01BD
:100FE00001960E949204BE016F5F7F4FC4010E9470
:100FF000A405CE0101960E94C3048FE00E942A023C
:101000004C0164E572E0CE0101960E949204BE019B
:101010006F5F7F4FC4010E94A405CE0101960E941C
:10102000C30480E10E942A024C0166E572E0CE0111
:1010300001960E949204BE016F5F7F4FC4010E941F
:10104000A405CE0101960E94C30468EB7BE080E01A
:1010500090E00E94610282E791E00E94F20288E53E
:1010600092E00E94F20282E791E00E94F202A11453
:10107000B10409F45ACF0E94FF00882309F455CF28
:101080000E94000052CFE5E8F2E01382128288EE5F
:1010900093E0A0E0B0E084839583A683B7838AE0E1
:1010A00091E09183808385EC90E09587848784EC40
:1010B00090E09787868780EC90E0918B808B81EC25
:1010C00090E0938B828B82EC90E0958B848B86EC06
:1010D00090E0978B868B118E128E138E148E08954E
:1010E0000E94B20808F481E00895E89409C097FBD3
:1010F0003EF490958095709561957F4F8F4F9F4FEF
:101100009923A9F0F92F96E9BB279395F695879532
:1011100077956795B795F111F8CFFAF4BB0F11F4F5
:1011200060FF1BC06F5F7F4F8F4F9F4F16C088239C
:1011300011F096E911C0772321F09EE8872F762FD2
:1011400005C0662371F096E8862F70E060E02AF013
:101150009A95660F771F881FDAF7880F96958795FF
:1011600097F90895990F0008550FAA0BE0E8FEEFD4
:1011700016161706E807F907C0F012161306E4075B
:10118000F50798F0621B730B840B950B39F40A2654
:1011900061F0232B242B252B21F408950A2609F432
:1011A000A140A6958FEF811D811D08950E94E90839
:1011B0000C945A090E944C0938F00E94530920F0FF
:1011C000952311F00C9443090C94490911240C94B3
:1011D0008E090E946B0970F3959FC1F3950F50E043
:1011E000551F629FF001729FBB27F00DB11D639FD9
:1011F000AA27F00DB11DAA1F649F6627B00DA11D7F
:10120000661F829F2227B00DA11D621F739FB00D24
:10121000A11D621F839FA00D611D221F749F332794
:10122000A00D611D231F849F600D211D822F762F2D
:101230006A2F11249F5750409AF0F1F088234AF00A
:10124000EE0FFF1FBB1F661F771F881F9150504076
:10125000A9F79E3F510580F00C9443090C948E0928
:101260005F3FE4F3983ED4F3869577956795B795FD
:10127000F795E7959F5FC1F7FE2B880F911D969517
:10128000879597F9089597F99F6780E870E060E087
:1012900008959FEF80EC089500240A94161617060F
:1012A00018060906089500240A9412161306140657
:1012B00005060895092E0394000C11F4882352F0BA
:1012C000BB0F40F4BF2B11F460FF04C06F5F7F4F72
:1012D0008F4F9F4F089557FD9058440F551F59F059
:1012E0005F3F71F04795880F97FB991F61F09F3F13
:1012F00079F087950895121613061406551FF2CF3C
:101300004695F1DF08C0161617061806991FF1CF8B
:1013100086957105610508940895E894BB276627B2
:101320007727CB0197F90895052E97FB1EF40094BB
:101330000E94AB0957FD07D00E94EA0907FC03D0C1
:101340004EF40C94AB0950954095309521953F4F44
:101350004F4F5F4F089590958095709561957F4FA1
:101360008F4F9F4F08952F923F924F925F926F92AF
:101370007F928F929F92AF92BF92CF92DF92EF9225
:10138000FF920F931F93CF93DF93CDB7DEB7CA1BA6
:10139000DB0B0FB6F894DEBF0FBECDBF09942A88D1
:1013A000398848885F846E847D848C849B84AA8479
:1013B000B984C884DF80EE80FD800C811B81AA8106
:1013C000B981CE0FD11D0FB6F894DEBF0FBECDBFD1
:1013D000ED010895A1E21A2EAA1BBB1BFD010DC051
:1013E000AA1FBB1FEE1FFF1FA217B307E407F507D5
:1013F00020F0A21BB30BE40BF50B661F771F881FB1
:10140000991F1A9469F760957095809590959B0146
:10141000AC01BD01CF010895A29FB001B39FC001EF
:10142000A39F700D811D1124911DB29F700D811D10
:101430001124911D08955058BB27AA270E94330AF2
:101440000C945A090E944C0938F00E94530920F06C
:1014500039F49F3F19F426F40C9449090EF4E095F1
:10146000E7FB0C944309E92F0E946B0958F3BA1764
:10147000620773078407950720F079F4A6F50C94AA
:101480008D090EF4E0950B2EBA2FA02D0B01B9019A
:1014900090010C01CA01A0011124FF27591B99F0EA
:1014A000593F50F4503E68F11A16F040A22F232FF6
:1014B000342F4427585FF3CF469537952795A79546
:1014C000F0405395C9F77EF41F16BA0B620B730BED
:1014D000840BBAF09150A1F0FF0FBB1F661F771F5E
:1014E000881FC2F70EC0BA0F621F731F841F48F413
:1014F000879577956795B795F7959E3F08F0B0CF9C
:101500009395880F08F09927EE0F97958795089582
:101510000E949C0A0C945A090E94530958F00E9498
:101520004C0940F029F45F3F29F00C944309511114
:101530000C948E090C9449090E946B0968F3992355
:10154000B1F3552391F3951B550BBB27AA276217BF
:101550007307840738F09F5F5F4F220F331F441FCC
:10156000AA1FA9F335D00E2E3AF0E0E832D0915000
:101570005040E695001CCAF72BD0FE2F29D0660FED
:10158000771F881FBB1F261737074807AB07B0E830
:1015900009F0BB0B802DBF01FF2793585F4F3AF036
:1015A0009E3F510578F00C9443090C948E095F3FDF
:1015B000E4F3983ED4F3869577956795B795F795BC
:1015C0009F5FC9F7880F911D9695879597F90895A4
:1015D000E1E0660F771F881FBB1F62177307840740
:1015E000BA0720F0621B730B840BBA0BEE1F88F74F
:1015F000E09508950E94730988F09F5798F0B92FDD
:101600009927B751B0F0E1F0660F771F881F991F37
:101610001AF0BA95C9F714C0B13091F00E948D0943
:10162000B1E008950C948D09672F782F8827B85F53
:1016300039F0B93FCCF3869577956795B395D9F78F
:101640003EF490958095709561957F4F8F4F9F4F99
:1016500008950E94B20808F48FEF08950E94B2081E
:10166000880B990B08950E940C0AB7FF0895821BFE
:10167000930B0895EE0FFF1F0590F491E02D099450
:101680000F931F93CF93DF938230910510F482E084
:1016900090E0E0912403F091250330E020E0B0E0F9
:1016A000A0E0309799F42115310509F44AC0281BB0
:1016B000390B24303105D8F58A819B81611571057C
:1016C00089F1FB0193838283FE0111C04081518126
:1016D0000281138148175907E0F04817590799F418
:1016E000109761F012960C93129713961C933296F2
:1016F000CF01DF91CF911F910F91089500932403A3
:1017000010932503F4CF2115310551F042175307EB
:1017100038F0A901DB019A01BD01DF01F801C1CF59
:10172000EF01F9CF9093250380932403CDCFFE01E1
:10173000E20FF31F8193919322503109398328835B
:10174000D7CF2091220330912303232B41F4209102
:10175000020130910301309323032093220320914F
:101760000001309101012115310541F42DB73EB73B
:101770004091040150910501241B350BE091220397
:10178000F0912303E217F307A0F42E1B3F0B281759
:10179000390778F0AC014E5F5F4F2417350748F0EA
:1017A0004E0F5F1F50932303409322038193919325
:1017B0009FCFF0E0E0E09CCFCF93DF930097E9F07C
:1017C000FC01329713821282A0912403B091250369
:1017D000ED0130E020E01097A1F420813181820FEB
:1017E000931F20912203309123032817390709F012
:1017F00061C0F0932303E0932203DF91CF9108951A
:10180000EA01CE17DF07E8F54A815B819E014115A9
:101810005105B1F7E901FB83EA8349915991C40F5E
:10182000D51FEC17FD0761F4808191810296840F2A
:10183000951FE90199838883828193819B838A83A1
:10184000F0E0E0E012968D919C9113970097B9F526
:101850002D913C911197CD010296820F931F2091FB
:101860002203309123032817390739F6309751F5B1
:101870001092250310922403B0932303A093220314
:10188000BCCFD383C28340815181840F951FC81779
:10189000D90761F44E5F5F4F88819981480F591FC6
:1018A000518340838A819B819383828321153105F3
:1018B00009F0B0CFF0932503E09324039ECFFD0100
:1018C000DC01C0CF13821282D7CFB0E0A0E0EBE6FC
:1018D000FCE00C94B5098C01009751F4CB010E94F7
:1018E000400B8C01C801CDB7DEB7E0E10C94D10903
:1018F000FC01E60FF71F9C0122503109E217F307A4
:1019000008F49DC0D901CD91DC911197C617D70776
:1019100098F0C530D10530F3CE01049786179707AC
:1019200008F3C61BD70B2297C193D1936D937C9379
:10193000CF010E94DC0BD6CF5B01AC1ABD0A4C0173
:101940008C0E9D1EA0912403B0912503512C412C97
:10195000F12CE12C109731F5809122039091230313
:101960008815990509F05CC04616570608F058C05E
:101970008091000190910101009741F48DB79EB7CD
:101980004091040150910501841B950BE817F9075C
:1019900008F055C0F0932303E0932203F90171830B
:1019A0006083A0CF8D919C91119712966C901297A5
:1019B00013967C901397A815B90559F56C0142E070
:1019C000C40ED11CCA14DB0420F1AC014A195B0916
:1019D000DA011296159780F06282738251834083F8
:1019E000D9016D937C93E114F10471F0D701139642
:1019F000FC93EE93129776CF22968C0F9D1FF901E0
:101A000091838083F301EFCFF0932503E0932403C8
:101A100069CF4816590608F42C017D01D3019ACFED
:101A2000CB010E94400B7C01009749F0AE01B80148
:101A30000E94220DC8010E94DC0B870153CF10E0E9
:101A400000E050CFFB01DC0102C001900D9241503B
:101A50005040D8F70895FB01DC0101900D92002061
:101A6000E1F70895F894FFCF0000260380000000FE
:101A7000000035018C00C2008201F300D100E500B6
:101A80000D0A006E616E00696E66006F7666002E4C
:101A9000206D617375726120616769726C69676935
:101AA00020646F6772756475722E002E20616769FD
:101AB000726C696769203A006772002E204D61736D
:101AC00075726164612068617461206D657964611B
:101AD0006E612067656C6469202120002E206D6195
:101AE000737572616E696E20616769726C6967698E
:101AF000206F6C6D61736920676572656B656E64DC
:101B0000656E2000677220006461686120617A2E32
:101B1000006461686120636F6B2E004275746F6EA4
:101B20006120626173696C646967696E6461206DCC
:101B300061737572616C61722063616C697361635A
:101B4000616B7469722E002A2A2A2A2A2A2A2A2AD2
:101B50002A2A2A2A2A004D61737572616C617220EB
:101B6000323020736E20626F79756E63612063611D
:101B70006C69736163616B7469722E004D6173757A
:101B800072616C61722064757264752C206F6C6375
:101B9000756D207961706D616B206963696E20736A
:101BA000656E736F722064656765726C657269201B
:101BB0006F6B756E75796F722E00310032003300D5
:101BC0004D61737572616C6172696E206F6C6375C3
:101BD0006D2064656765726C657269206F6B756EE8
:041BE00064752E00FA
:107E0000112484B714BE81FFF0D085E080938100F7
:107E100082E08093C00088E18093C10086E0809377
:107E2000C20080E18093C4008EE0C9D0259A86E02C
:107E300020E33CEF91E0309385002093840096BBD3
:107E4000B09BFECF1D9AA8958150A9F7CC24DD24C4
:107E500088248394B5E0AB2EA1E19A2EF3E0BF2EE7
:107E6000A2D0813461F49FD0082FAFD0023811F036
:107E7000013811F484E001C083E08DD089C08234E0
:107E800011F484E103C0853419F485E0A6D080C0E4
:107E9000853579F488D0E82EFF2485D0082F10E0AE
:107EA000102F00270E291F29000F111F8ED06801E7
:107EB0006FC0863521F484E090D080E0DECF843638
:107EC00009F040C070D06FD0082F6DD080E0C81688
:107ED00080E7D80618F4F601B7BEE895C0E0D1E017
:107EE00062D089930C17E1F7F0E0CF16F0E7DF06D8
:107EF00018F0F601B7BEE89568D007B600FCFDCFD4
:107F0000A601A0E0B1E02C9130E011968C91119780
:107F100090E0982F8827822B932B1296FA010C0160
:107F200087BEE89511244E5F5F4FF1E0A038BF0790
:107F300051F7F601A7BEE89507B600FCFDCF97BE46
:107F4000E89526C08437B1F42ED02DD0F82E2BD052
:107F50003CD0F601EF2C8F010F5F1F4F84911BD097
:107F6000EA94F801C1F70894C11CD11CFA94CF0C13
:107F7000D11C0EC0853739F428D08EE10CD085E9AC
:107F80000AD08FE07ACF813511F488E018D01DD067
:107F900080E101D065CF982F8091C00085FFFCCF94
:107FA0009093C60008958091C00087FFFCCF809118
:107FB000C00084FD01C0A8958091C6000895E0E648
:107FC000F0E098E1908380830895EDDF803219F02E
:107FD00088E0F5DFFFCF84E1DECF1F93182FE3DFCA
:107FE0001150E9F7F2DF1F91089580E0E8DFEE27F6
:047FF000FF270994CA
:027FFE00040479
:00000001FF
